{
	"data": {
		"bytecode": {
			"linkReferences": {},
			"object": "6080604052348015600f57600080fd5b50609c8061001e6000396000f3fe6080604052348015600f57600080fd5b506004361060285760003560e01c8063400bd17214602d575b600080fd5b60336049565b6040518082815260200191505060405180910390f35b60008060029050600060039050600081830290508093505050509056fea2646970667358221220c749b67c2ee26d79eb9f30429d881f3e925f3a724d91e7029191dfd330b45e8564736f6c63430007000033",
			"opcodes": "PUSH1 0x80 PUSH1 0x40 MSTORE CALLVALUE DUP1 ISZERO PUSH1 0xF JUMPI PUSH1 0x0 DUP1 REVERT JUMPDEST POP PUSH1 0x9C DUP1 PUSH2 0x1E PUSH1 0x0 CODECOPY PUSH1 0x0 RETURN INVALID PUSH1 0x80 PUSH1 0x40 MSTORE CALLVALUE DUP1 ISZERO PUSH1 0xF JUMPI PUSH1 0x0 DUP1 REVERT JUMPDEST POP PUSH1 0x4 CALLDATASIZE LT PUSH1 0x28 JUMPI PUSH1 0x0 CALLDATALOAD PUSH1 0xE0 SHR DUP1 PUSH4 0x400BD172 EQ PUSH1 0x2D JUMPI JUMPDEST PUSH1 0x0 DUP1 REVERT JUMPDEST PUSH1 0x33 PUSH1 0x49 JUMP JUMPDEST PUSH1 0x40 MLOAD DUP1 DUP3 DUP2 MSTORE PUSH1 0x20 ADD SWAP2 POP POP PUSH1 0x40 MLOAD DUP1 SWAP2 SUB SWAP1 RETURN JUMPDEST PUSH1 0x0 DUP1 PUSH1 0x2 SWAP1 POP PUSH1 0x0 PUSH1 0x3 SWAP1 POP PUSH1 0x0 DUP2 DUP4 MUL SWAP1 POP DUP1 SWAP4 POP POP POP POP SWAP1 JUMP INVALID LOG2 PUSH5 0x6970667358 0x22 SLT KECCAK256 0xC7 0x49 0xB6 PUSH29 0x2EE26D79EB9F30429D881F3E925F3A724D91E7029191DFD330B45E8564 PUSH20 0x6F6C634300070000330000000000000000000000 "
		},
		"gasEstimates": {
			"creation": {
				"codeDepositCost": "31200",
				"executionCost": "81",
				"totalCost": "31281"
			},
			"external": {
				"multiplyCalculator()": "238"
			}
		},
		"methodIdentifiers": {
			"multiplyCalculator()": "400bd172"
		}
	},
	"abi": [
		{
			"inputs": [],
			"name": "multiplyCalculator",
			"outputs": [
				{
					"internalType": "uint256",
					"name": "",
					"type": "uint256"
				}
			],
			"stateMutability": "view",
			"type": "function"
		}
	]
}